{
    "contractName": "starNotary",
    "abi": [
        {
            "inputs": [],
            "stateMutability": "nonpayable",
            "type": "constructor"
        },
        {
            "anonymous": false,
            "inputs": [
                {
                    "indexed": true,
                    "internalType": "address",
                    "name": "owner",
                    "type": "address"
                },
                {
                    "indexed": true,
                    "internalType": "address",
                    "name": "approved",
                    "type": "address"
                },
                {
                    "indexed": true,
                    "internalType": "uint256",
                    "name": "tokenId",
                    "type": "uint256"
                }
            ],
            "name": "Approval",
            "type": "event"
        },
        {
            "anonymous": false,
            "inputs": [
                {
                    "indexed": true,
                    "internalType": "address",
                    "name": "owner",
                    "type": "address"
                },
                {
                    "indexed": true,
                    "internalType": "address",
                    "name": "operator",
                    "type": "address"
                },
                {
                    "indexed": false,
                    "internalType": "bool",
                    "name": "approved",
                    "type": "bool"
                }
            ],
            "name": "ApprovalForAll",
            "type": "event"
        },
        {
            "anonymous": false,
            "inputs": [
                {
                    "indexed": true,
                    "internalType": "address",
                    "name": "from",
                    "type": "address"
                },
                {
                    "indexed": true,
                    "internalType": "address",
                    "name": "to",
                    "type": "address"
                },
                {
                    "indexed": true,
                    "internalType": "uint256",
                    "name": "tokenId",
                    "type": "uint256"
                }
            ],
            "name": "Transfer",
            "type": "event"
        },
        {
            "inputs": [
                {
                    "internalType": "address",
                    "name": "to",
                    "type": "address"
                },
                {
                    "internalType": "uint256",
                    "name": "tokenId",
                    "type": "uint256"
                }
            ],
            "name": "approve",
            "outputs": [],
            "stateMutability": "nonpayable",
            "type": "function"
        },
        {
            "inputs": [
                {
                    "internalType": "address",
                    "name": "owner",
                    "type": "address"
                }
            ],
            "name": "balanceOf",
            "outputs": [
                {
                    "internalType": "uint256",
                    "name": "",
                    "type": "uint256"
                }
            ],
            "stateMutability": "view",
            "type": "function"
        },
        {
            "inputs": [],
            "name": "baseURI",
            "outputs": [
                {
                    "internalType": "string",
                    "name": "",
                    "type": "string"
                }
            ],
            "stateMutability": "view",
            "type": "function"
        },
        {
            "inputs": [
                {
                    "internalType": "uint256",
                    "name": "_tokenId",
                    "type": "uint256"
                }
            ],
            "name": "buyStar",
            "outputs": [],
            "stateMutability": "payable",
            "type": "function"
        },
        {
            "inputs": [
                {
                    "internalType": "string",
                    "name": "_name",
                    "type": "string"
                },
                {
                    "internalType": "uint256",
                    "name": "_tokenId",
                    "type": "uint256"
                }
            ],
            "name": "createStar",
            "outputs": [],
            "stateMutability": "nonpayable",
            "type": "function"
        },
        {
            "inputs": [
                {
                    "internalType": "uint256",
                    "name": "tokenId",
                    "type": "uint256"
                }
            ],
            "name": "getApproved",
            "outputs": [
                {
                    "internalType": "address",
                    "name": "",
                    "type": "address"
                }
            ],
            "stateMutability": "view",
            "type": "function"
        },
        {
            "inputs": [
                {
                    "internalType": "address",
                    "name": "owner",
                    "type": "address"
                },
                {
                    "internalType": "address",
                    "name": "operator",
                    "type": "address"
                }
            ],
            "name": "isApprovedForAll",
            "outputs": [
                {
                    "internalType": "bool",
                    "name": "",
                    "type": "bool"
                }
            ],
            "stateMutability": "view",
            "type": "function"
        },
        {
            "inputs": [],
            "name": "name",
            "outputs": [
                {
                    "internalType": "string",
                    "name": "",
                    "type": "string"
                }
            ],
            "stateMutability": "view",
            "type": "function"
        },
        {
            "inputs": [
                {
                    "internalType": "uint256",
                    "name": "tokenId",
                    "type": "uint256"
                }
            ],
            "name": "ownerOf",
            "outputs": [
                {
                    "internalType": "address",
                    "name": "",
                    "type": "address"
                }
            ],
            "stateMutability": "view",
            "type": "function"
        },
        {
            "inputs": [
                {
                    "internalType": "uint256",
                    "name": "_tokenId",
                    "type": "uint256"
                },
                {
                    "internalType": "uint256",
                    "name": "_price",
                    "type": "uint256"
                }
            ],
            "name": "putStarUpForSale",
            "outputs": [],
            "stateMutability": "nonpayable",
            "type": "function"
        },
        {
            "inputs": [
                {
                    "internalType": "address",
                    "name": "from",
                    "type": "address"
                },
                {
                    "internalType": "address",
                    "name": "to",
                    "type": "address"
                },
                {
                    "internalType": "uint256",
                    "name": "tokenId",
                    "type": "uint256"
                }
            ],
            "name": "safeTransferFrom",
            "outputs": [],
            "stateMutability": "nonpayable",
            "type": "function"
        },
        {
            "inputs": [
                {
                    "internalType": "address",
                    "name": "from",
                    "type": "address"
                },
                {
                    "internalType": "address",
                    "name": "to",
                    "type": "address"
                },
                {
                    "internalType": "uint256",
                    "name": "tokenId",
                    "type": "uint256"
                },
                {
                    "internalType": "bytes",
                    "name": "_data",
                    "type": "bytes"
                }
            ],
            "name": "safeTransferFrom",
            "outputs": [],
            "stateMutability": "nonpayable",
            "type": "function"
        },
        {
            "inputs": [
                {
                    "internalType": "address",
                    "name": "operator",
                    "type": "address"
                },
                {
                    "internalType": "bool",
                    "name": "approved",
                    "type": "bool"
                }
            ],
            "name": "setApprovalForAll",
            "outputs": [],
            "stateMutability": "nonpayable",
            "type": "function"
        },
        {
            "inputs": [
                {
                    "internalType": "uint256",
                    "name": "",
                    "type": "uint256"
                }
            ],
            "name": "starsForSale",
            "outputs": [
                {
                    "internalType": "uint256",
                    "name": "",
                    "type": "uint256"
                }
            ],
            "stateMutability": "view",
            "type": "function"
        },
        {
            "inputs": [
                {
                    "internalType": "bytes4",
                    "name": "interfaceId",
                    "type": "bytes4"
                }
            ],
            "name": "supportsInterface",
            "outputs": [
                {
                    "internalType": "bool",
                    "name": "",
                    "type": "bool"
                }
            ],
            "stateMutability": "view",
            "type": "function"
        },
        {
            "inputs": [],
            "name": "symbol",
            "outputs": [
                {
                    "internalType": "string",
                    "name": "",
                    "type": "string"
                }
            ],
            "stateMutability": "view",
            "type": "function"
        },
        {
            "inputs": [
                {
                    "internalType": "uint256",
                    "name": "index",
                    "type": "uint256"
                }
            ],
            "name": "tokenByIndex",
            "outputs": [
                {
                    "internalType": "uint256",
                    "name": "",
                    "type": "uint256"
                }
            ],
            "stateMutability": "view",
            "type": "function"
        },
        {
            "inputs": [
                {
                    "internalType": "uint256",
                    "name": "",
                    "type": "uint256"
                }
            ],
            "name": "tokenIdToStarInfo",
            "outputs": [
                {
                    "internalType": "string",
                    "name": "name",
                    "type": "string"
                }
            ],
            "stateMutability": "view",
            "type": "function"
        },
        {
            "inputs": [
                {
                    "internalType": "address",
                    "name": "owner",
                    "type": "address"
                },
                {
                    "internalType": "uint256",
                    "name": "index",
                    "type": "uint256"
                }
            ],
            "name": "tokenOfOwnerByIndex",
            "outputs": [
                {
                    "internalType": "uint256",
                    "name": "",
                    "type": "uint256"
                }
            ],
            "stateMutability": "view",
            "type": "function"
        },
        {
            "inputs": [
                {
                    "internalType": "uint256",
                    "name": "tokenId",
                    "type": "uint256"
                }
            ],
            "name": "tokenURI",
            "outputs": [
                {
                    "internalType": "string",
                    "name": "",
                    "type": "string"
                }
            ],
            "stateMutability": "view",
            "type": "function"
        },
        {
            "inputs": [],
            "name": "totalSupply",
            "outputs": [
                {
                    "internalType": "uint256",
                    "name": "",
                    "type": "uint256"
                }
            ],
            "stateMutability": "view",
            "type": "function"
        },
        {
            "inputs": [
                {
                    "internalType": "address",
                    "name": "from",
                    "type": "address"
                },
                {
                    "internalType": "address",
                    "name": "to",
                    "type": "address"
                },
                {
                    "internalType": "uint256",
                    "name": "tokenId",
                    "type": "uint256"
                }
            ],
            "name": "transferFrom",
            "outputs": [],
            "stateMutability": "nonpayable",
            "type": "function"
        }
    ],
    "bytecode": "60806040523480156200001157600080fd5b50604080518082018252600a815269737461724e6f7461727960b01b6020808301919091528251808401909352600483526329aa20a960e11b90830152906200006a6301ffc9a760e01b6001600160e01b03620000ef16565b81516200007f90600690602085019062000174565b5080516200009590600790602084019062000174565b50620000b16380ac58cd60e01b6001600160e01b03620000ef16565b620000cc635b5e139f60e01b6001600160e01b03620000ef16565b620000e763780e9d6360e01b6001600160e01b03620000ef16565b505062000219565b6001600160e01b031980821614156200014f576040805162461bcd60e51b815260206004820152601c60248201527f4552433136353a20696e76616c696420696e7465726661636520696400000000604482015290519081900360640190fd5b6001600160e01b0319166000908152602081905260409020805460ff19166001179055565b828054600181600116156101000203166002900490600052602060002090601f016020900481019282601f10620001b757805160ff1916838001178555620001e7565b82800160010185558215620001e7579182015b82811115620001e7578251825591602001919060010190620001ca565b50620001f5929150620001f9565b5090565b6200021691905b80821115620001f5576000815560010162000200565b90565b61213680620002296000396000f3fe6080604052600436106101355760003560e01c806342842e0e116100ab57806395d89b411161006f57806395d89b41146104b05780639697c0a1146104c5578063a22cb4651461057a578063b88d4fde146105b5578063c87b56dd14610688578063e985e9c5146106b257610135565b806342842e0e146103d15780634f6ccce7146104145780636352211e1461043e5780636c0360eb1461046857806370a082311461047d57610135565b806318160ddd116100fd57806318160ddd146102c95780631967fd98146102de57806323b872dd146103085780632f1c34ef1461034b5780632f745c5914610368578063316a4361146103a157610135565b806301ffc9a71461013a5780630564b1301461018257806306fdde03146101be578063081812fc14610248578063095ea7b31461028e575b600080fd5b34801561014657600080fd5b5061016e6004803603602081101561015d57600080fd5b50356001600160e01b0319166106ed565b604080519115158252519081900360200190f35b34801561018e57600080fd5b506101ac600480360360208110156101a557600080fd5b5035610710565b60408051918252519081900360200190f35b3480156101ca57600080fd5b506101d3610722565b6040805160208082528351818301528351919283929083019185019080838360005b8381101561020d5781810151838201526020016101f5565b50505050905090810190601f16801561023a5780820380516001836020036101000a031916815260200191505b509250505060405180910390f35b34801561025457600080fd5b506102726004803603602081101561026b57600080fd5b50356107b9565b604080516001600160a01b039092168252519081900360200190f35b34801561029a57600080fd5b506102c7600480360360408110156102b157600080fd5b506001600160a01b03813516906020013561081b565b005b3480156102d557600080fd5b506101ac6108f6565b3480156102ea57600080fd5b506101d36004803603602081101561030157600080fd5b5035610907565b34801561031457600080fd5b506102c76004803603606081101561032b57600080fd5b506001600160a01b038135811691602081013590911690604001356109a8565b6102c76004803603602081101561036157600080fd5b50356109ff565b34801561037457600080fd5b506101ac6004803603604081101561038b57600080fd5b506001600160a01b038135169060200135610b5e565b3480156103ad57600080fd5b506102c7600480360360408110156103c457600080fd5b5080359060200135610b8f565b3480156103dd57600080fd5b506102c7600480360360608110156103f457600080fd5b506001600160a01b03813581169160208101359091169060400135610bf0565b34801561042057600080fd5b506101ac6004803603602081101561043757600080fd5b5035610c0b565b34801561044a57600080fd5b506102726004803603602081101561046157600080fd5b5035610c27565b34801561047457600080fd5b506101d3610c55565b34801561048957600080fd5b506101ac600480360360208110156104a057600080fd5b50356001600160a01b0316610cb6565b3480156104bc57600080fd5b506101d3610d1e565b3480156104d157600080fd5b506102c7600480360360408110156104e857600080fd5b81019060208101813564010000000081111561050357600080fd5b82018360208201111561051557600080fd5b8035906020019184600183028401116401000000008311171561053757600080fd5b91908080601f0160208091040260200160405190810160405280939291908181526020018383808284376000920191909152509295505091359250610d7f915050565b34801561058657600080fd5b506102c76004803603604081101561059d57600080fd5b506001600160a01b0381351690602001351515610dc6565b3480156105c157600080fd5b506102c7600480360360808110156105d857600080fd5b6001600160a01b0382358116926020810135909116916040820135919081019060808101606082013564010000000081111561061357600080fd5b82018360208201111561062557600080fd5b8035906020019184600183028401116401000000008311171561064757600080fd5b91908080601f016020809104026020016040519081016040528093929190818152602001838380828437600092019190915250929550610ecb945050505050565b34801561069457600080fd5b506101d3600480360360208110156106ab57600080fd5b5035610f23565b3480156106be57600080fd5b5061016e600480360360408110156106d557600080fd5b506001600160a01b03813581169160200135166111ca565b6001600160e01b0319811660009081526020819052604090205460ff165b919050565b600b6020526000908152604090205481565b60068054604080516020601f60026000196101006001881615020190951694909404938401819004810282018101909252828152606093909290918301828280156107ae5780601f10610783576101008083540402835291602001916107ae565b820191906000526020600020905b81548152906001019060200180831161079157829003601f168201915b505050505090505b90565b60006107c4826111f8565b6107ff5760405162461bcd60e51b815260040180806020018281038252602c815260200180612003602c913960400191505060405180910390fd5b506000908152600460205260409020546001600160a01b031690565b600061082682610c27565b9050806001600160a01b0316836001600160a01b031614156108795760405162461bcd60e51b81526004018080602001828103825260218152602001806120af6021913960400191505060405180910390fd5b806001600160a01b031661088b61120b565b6001600160a01b031614806108ac57506108ac816108a761120b565b6111ca565b6108e75760405162461bcd60e51b8152600401808060200182810382526038815260200180611f566038913960400191505060405180910390fd5b6108f1838361120f565b505050565b6000610902600261127d565b905090565b600a6020908152600091825260409182902080548351601f6002600019610100600186161502019093169290920491820184900484028101840190945280845290929183919083018282801561099e5780601f106109735761010080835404028352916020019161099e565b820191906000526020600020905b81548152906001019060200180831161098157829003601f168201915b5050505050905081565b6109b96109b361120b565b82611288565b6109f45760405162461bcd60e51b81526004018080602001828103825260318152602001806120d06031913960400191505060405180910390fd5b6108f183838361132c565b6000818152600b6020526040902054610a5f576040805162461bcd60e51b815260206004820152601e60248201527f54686520737461722073686f756c6420626520757020666f722073616c650000604482015290519081900360640190fd5b6000818152600b602052604081205490610a7883610c27565b905081341015610acf576040805162461bcd60e51b815260206004820152601d60248201527f596f75206e65656420746f206861766520656e6f756768204574686572000000604482015290519081900360640190fd5b610ada813385610bf0565b6000610ae5336107b6565b6040519091506001600160a01b0382169084156108fc029085906000818181858888f19350505050158015610b1e573d6000803e3d6000fd5b5082341115610b585760405133903485900380156108fc02916000818181858888f19350505050158015610b56573d6000803e3d6000fd5b505b50505050565b6001600160a01b0382166000908152600160205260408120610b86908363ffffffff61148a16565b90505b92915050565b33610b9983610c27565b6001600160a01b031614610bde5760405162461bcd60e51b815260040180806020018281038252602881526020018061202f6028913960400191505060405180910390fd5b6000918252600b602052604090912055565b6108f183838360405180602001604052806000815250610ecb565b600080610c1f60028463ffffffff61149616565b509392505050565b6000610b8982604051806060016040528060298152602001611fb8602991396002919063ffffffff6114b216565b60098054604080516020601f60026000196101006001881615020190951694909404938401819004810282018101909252828152606093909290918301828280156107ae5780601f10610783576101008083540402835291602001916107ae565b60006001600160a01b038216610cfd5760405162461bcd60e51b815260040180806020018281038252602a815260200180611f8e602a913960400191505060405180910390fd5b6001600160a01b0382166000908152600160205260409020610b899061127d565b60078054604080516020601f60026000196101006001881615020190951694909404938401819004810282018101909252828152606093909290918301828280156107ae5780601f10610783576101008083540402835291602001916107ae565b610d87611e06565b5060408051602080820183528482526000848152600a8252929092208151805192938493610db89284920190611e19565b509050506108f133836114c9565b610dce61120b565b6001600160a01b0316826001600160a01b03161415610e34576040805162461bcd60e51b815260206004820152601960248201527f4552433732313a20617070726f766520746f2063616c6c657200000000000000604482015290519081900360640190fd5b8060056000610e4161120b565b6001600160a01b03908116825260208083019390935260409182016000908120918716808252919093529120805460ff191692151592909217909155610e8561120b565b60408051841515815290516001600160a01b0392909216917f17307eab39ab6107e8899845ad3d59bd9653f200f220920489ca2b5937696c319181900360200190a35050565b610edc610ed661120b565b83611288565b610f175760405162461bcd60e51b81526004018080602001828103825260318152602001806120d06031913960400191505060405180910390fd5b610b5884848484611603565b6060610f2e826111f8565b610f695760405162461bcd60e51b815260040180806020018281038252602f815260200180612080602f913960400191505060405180910390fd5b60008281526008602090815260409182902080548351601f6002600019610100600186161502019093169290920491820184900484028101840190945280845260609392830182828015610ffe5780601f10610fd357610100808354040283529160200191610ffe565b820191906000526020600020905b815481529060010190602001808311610fe157829003601f168201915b50506009549394505050506002600019610100600184161502019091160461102757905061070b565b8051156110f857600981604051602001808380546001816001161561010002031660029004801561108f5780601f1061106d57610100808354040283529182019161108f565b820191906000526020600020905b81548152906001019060200180831161107b575b5050825160208401908083835b602083106110bb5780518252601f19909201916020918201910161109c565b6001836020036101000a0380198251168184511680821785525050505050509050019250505060405160208183030381529060405291505061070b565b600961110384611655565b60405160200180838054600181600116156101000203166002900480156111615780601f1061113f576101008083540402835291820191611161565b820191906000526020600020905b81548152906001019060200180831161114d575b5050825160208401908083835b6020831061118d5780518252601f19909201916020918201910161116e565b6001836020036101000a03801982511681845116808217855250505050505090500192505050604051602081830303815290604052915050919050565b6001600160a01b03918216600090815260056020908152604080832093909416825291909152205460ff1690565b6000610b8960028363ffffffff61173016565b3390565b600081815260046020526040902080546001600160a01b0319166001600160a01b038416908117909155819061124482610c27565b6001600160a01b03167f8c5be1e5ebec7d5bd14f71427d1e84f3dd0314c0f7b2291e5b200ac8c7c3b92560405160405180910390a45050565b6000610b898261173c565b6000611293826111f8565b6112ce5760405162461bcd60e51b815260040180806020018281038252602c815260200180611f2a602c913960400191505060405180910390fd5b60006112d983610c27565b9050806001600160a01b0316846001600160a01b031614806113145750836001600160a01b0316611309846107b9565b6001600160a01b0316145b80611324575061132481856111ca565b949350505050565b826001600160a01b031661133f82610c27565b6001600160a01b0316146113845760405162461bcd60e51b81526004018080602001828103825260298152602001806120576029913960400191505060405180910390fd5b6001600160a01b0382166113c95760405162461bcd60e51b8152600401808060200182810382526024815260200180611f066024913960400191505060405180910390fd5b6113d48383836108f1565b6113df60008261120f565b6001600160a01b0383166000908152600160205260409020611407908263ffffffff61174016565b506001600160a01b0382166000908152600160205260409020611430908263ffffffff61174c16565b506114436002828463ffffffff61175816565b5080826001600160a01b0316846001600160a01b03167fddf252ad1be2c89b69c2b068fc378daa952ba7f163c4a11628f55a4df523b3ef60405160405180910390a4505050565b6000610b86838361176e565b60008080806114a586866117d2565b9097909650945050505050565b60006114bf84848461184d565b90505b9392505050565b6001600160a01b038216611524576040805162461bcd60e51b815260206004820181905260248201527f4552433732313a206d696e7420746f20746865207a65726f2061646472657373604482015290519081900360640190fd5b61152d816111f8565b1561157f576040805162461bcd60e51b815260206004820152601c60248201527f4552433732313a20746f6b656e20616c7265616479206d696e74656400000000604482015290519081900360640190fd5b61158b600083836108f1565b6001600160a01b03821660009081526001602052604090206115b3908263ffffffff61174c16565b506115c66002828463ffffffff61175816565b5060405181906001600160a01b038416906000907fddf252ad1be2c89b69c2b068fc378daa952ba7f163c4a11628f55a4df523b3ef908290a45050565b61160e84848461132c565b61161a84848484611917565b610b585760405162461bcd60e51b8152600401808060200182810382526032815260200180611ed46032913960400191505060405180910390fd5b60608161167a57506040805180820190915260018152600360fc1b602082015261070b565b8160005b811561169257600101600a8204915061167e565b60608167ffffffffffffffff811180156116ab57600080fd5b506040519080825280601f01601f1916602001820160405280156116d6576020820181803683370190505b50859350905060001982015b831561172757600a840660300160f81b8282806001900393508151811061170557fe5b60200101906001600160f81b031916908160001a905350600a840493506116e2565b50949350505050565b6000610b868383611a97565b5490565b6000610b868383611aaf565b6000610b868383611b75565b60006114bf84846001600160a01b038516611bbf565b815460009082106117b05760405162461bcd60e51b8152600401808060200182810382526022815260200180611eb26022913960400191505060405180910390fd5b8260000182815481106117bf57fe5b9060005260206000200154905092915050565b8154600090819083106118165760405162461bcd60e51b8152600401808060200182810382526022815260200180611fe16022913960400191505060405180910390fd5b600084600001848154811061182757fe5b906000526020600020906002020190508060000154816001015492509250509250929050565b600082815260018401602052604081205482816118e85760405162461bcd60e51b81526004018080602001828103825283818151815260200191508051906020019080838360005b838110156118ad578181015183820152602001611895565b50505050905090810190601f1680156118da5780820380516001836020036101000a031916815260200191505b509250505060405180910390fd5b508460000160018203815481106118fb57fe5b9060005260206000209060020201600101549150509392505050565b600061192b846001600160a01b0316611c56565b61193757506001611324565b6060611a5d630a85bd0160e11b61194c61120b565b88878760405160240180856001600160a01b03166001600160a01b03168152602001846001600160a01b03166001600160a01b0316815260200183815260200180602001828103825283818151815260200191508051906020019080838360005b838110156119c55781810151838201526020016119ad565b50505050905090810190601f1680156119f25780820380516001836020036101000a031916815260200191505b5095505050505050604051602081830303815290604052906001600160e01b0319166020820180516001600160e01b038381831617835250505050604051806060016040528060328152602001611ed4603291396001600160a01b038816919063ffffffff611c8f16565b90506000818060200190516020811015611a7657600080fd5b50516001600160e01b031916630a85bd0160e11b1492505050949350505050565b60009081526001919091016020526040902054151590565b60008181526001830160205260408120548015611b6b5783546000198083019190810190600090879083908110611ae257fe5b9060005260206000200154905080876000018481548110611aff57fe5b600091825260208083209091019290925582815260018981019092526040902090840190558654879080611b2f57fe5b60019003818190600052602060002001600090559055866001016000878152602001908152602001600020600090556001945050505050610b89565b6000915050610b89565b6000611b818383611a97565b611bb757508154600181810184556000848152602080822090930184905584548482528286019093526040902091909155610b89565b506000610b89565b600082815260018401602052604081205480611c245750506040805180820182528381526020808201848152865460018181018955600089815284812095516002909302909501918255915190820155865486845281880190925292909120556114c2565b82856000016001830381548110611c3757fe5b90600052602060002090600202016001018190555060009150506114c2565b6000813f7fc5d2460186f7233c927e7db2dcc703c0e500b653ca82273b7bfad8045d85a470818114801590611324575050151592915050565b60606114bf84846000856060611ca485611c56565b611cf5576040805162461bcd60e51b815260206004820152601d60248201527f416464726573733a2063616c6c20746f206e6f6e2d636f6e7472616374000000604482015290519081900360640190fd5b60006060866001600160a01b031685876040518082805190602001908083835b60208310611d345780518252601f199092019160209182019101611d15565b6001836020036101000a03801982511681845116808217855250505050505090500191505060006040518083038185875af1925050503d8060008114611d96576040519150601f19603f3d011682016040523d82523d6000602084013e611d9b565b606091505b50915091508115611daf5791506113249050565b805115611dbf5780518082602001fd5b60405162461bcd60e51b81526020600482018181528651602484015286518793919283926044019190850190808383600083156118ad578181015183820152602001611895565b6040518060200160405280606081525090565b828054600181600116156101000203166002900490600052602060002090601f016020900481019282601f10611e5a57805160ff1916838001178555611e87565b82800160010185558215611e87579182015b82811115611e87578251825591602001919060010190611e6c565b50611e93929150611e97565b5090565b6107b691905b80821115611e935760008155600101611e9d56fe456e756d657261626c655365743a20696e646578206f7574206f6620626f756e64734552433732313a207472616e7366657220746f206e6f6e20455243373231526563656976657220696d706c656d656e7465724552433732313a207472616e7366657220746f20746865207a65726f20616464726573734552433732313a206f70657261746f7220717565727920666f72206e6f6e6578697374656e7420746f6b656e4552433732313a20617070726f76652063616c6c6572206973206e6f74206f776e6572206e6f7220617070726f76656420666f7220616c6c4552433732313a2062616c616e636520717565727920666f7220746865207a65726f20616464726573734552433732313a206f776e657220717565727920666f72206e6f6e6578697374656e7420746f6b656e456e756d657261626c654d61703a20696e646578206f7574206f6620626f756e64734552433732313a20617070726f76656420717565727920666f72206e6f6e6578697374656e7420746f6b656e596f752063616e27742073616c6520746865207374617220796f7520646f6e2774206f776e65642e4552433732313a207472616e73666572206f6620746f6b656e2074686174206973206e6f74206f776e4552433732314d657461646174613a2055524920717565727920666f72206e6f6e6578697374656e7420746f6b656e4552433732313a20617070726f76616c20746f2063757272656e74206f776e65724552433732313a207472616e736665722063616c6c6572206973206e6f74206f776e6572206e6f7220617070726f766564a2646970667358221220bb902e94c94be8593ede0caaef15dfbfa723b3954202e52b22e614a6f9d0c40b64736f6c63430006090033",
    "sourcePath": "/media/agam/Education/Blockchain/starNotaryv2/contracts/starNotary.sol",
    "compiler": {
        "name": "solc",
        "version": "0.6.9+commit.3e3065ac"
    },
    "functionHashes": {
        "approve(address,uint256)": "095ea7b3",
        "balanceOf(address)": "70a08231",
        "baseURI()": "6c0360eb",
        "buyStar(uint256)": "2f1c34ef",
        "createStar(string,uint256)": "9697c0a1",
        "getApproved(uint256)": "081812fc",
        "isApprovedForAll(address,address)": "e985e9c5",
        "name()": "06fdde03",
        "ownerOf(uint256)": "6352211e",
        "putStarUpForSale(uint256,uint256)": "316a4361",
        "safeTransferFrom(address,address,uint256)": "42842e0e",
        "safeTransferFrom(address,address,uint256,bytes)": "b88d4fde",
        "setApprovalForAll(address,bool)": "a22cb465",
        "starsForSale(uint256)": "0564b130",
        "supportsInterface(bytes4)": "01ffc9a7",
        "symbol()": "95d89b41",
        "tokenByIndex(uint256)": "4f6ccce7",
        "tokenIdToStarInfo(uint256)": "1967fd98",
        "tokenOfOwnerByIndex(address,uint256)": "2f745c59",
        "tokenURI(uint256)": "c87b56dd",
        "totalSupply()": "18160ddd",
        "transferFrom(address,address,uint256)": "23b872dd"
    },
    "gasEstimates": {
        "creation": {
            "codeDepositCost": "1700400",
            "executionCost": "infinite",
            "totalCost": "infinite"
        },
        "external": {
            "approve(address,uint256)": "infinite",
            "balanceOf(address)": "infinite",
            "baseURI()": "infinite",
            "buyStar(uint256)": "infinite",
            "createStar(string,uint256)": "infinite",
            "getApproved(uint256)": "infinite",
            "isApprovedForAll(address,address)": "1394",
            "name()": "infinite",
            "ownerOf(uint256)": "infinite",
            "putStarUpForSale(uint256,uint256)": "infinite",
            "safeTransferFrom(address,address,uint256)": "infinite",
            "safeTransferFrom(address,address,uint256,bytes)": "infinite",
            "setApprovalForAll(address,bool)": "infinite",
            "starsForSale(uint256)": "1152",
            "supportsInterface(bytes4)": "1196",
            "symbol()": "infinite",
            "tokenByIndex(uint256)": "infinite",
            "tokenIdToStarInfo(uint256)": "infinite",
            "tokenOfOwnerByIndex(address,uint256)": "infinite",
            "tokenURI(uint256)": "infinite",
            "totalSupply()": "1096",
            "transferFrom(address,address,uint256)": "infinite"
        },
        "internal": {
            "_make_payable(address)": "infinite"
        }
    }
}